{
  "contractName": "AccountVerification",
  "abi": [
    {
      "inputs": [],
      "stateMutability": "nonpayable",
      "type": "constructor"
    },
    {
      "inputs": [],
      "name": "nbOfUsers",
      "outputs": [
        {
          "internalType": "uint256",
          "name": "",
          "type": "uint256"
        }
      ],
      "stateMutability": "view",
      "type": "function",
      "constant": true
    },
    {
      "inputs": [
        {
          "internalType": "string",
          "name": "_signature",
          "type": "string"
        }
      ],
      "name": "register",
      "outputs": [],
      "stateMutability": "nonpayable",
      "type": "function"
    },
    {
      "inputs": [],
      "name": "getSignatureHash",
      "outputs": [
        {
          "internalType": "string",
          "name": "",
          "type": "string"
        }
      ],
      "stateMutability": "view",
      "type": "function",
      "constant": true
    },
    {
      "inputs": [],
      "name": "getUserAddress",
      "outputs": [
        {
          "internalType": "address",
          "name": "",
          "type": "address"
        }
      ],
      "stateMutability": "view",
      "type": "function",
      "constant": true
    }
  ],
  "bytecode": "0x608060405234801561001057600080fd5b5060008081905550610a03806100276000396000f3fe608060405234801561001057600080fd5b506004361061004c5760003560e01c80631267932314610051578063c127ae411461006f578063ebc3eee81461008d578063f2c298be146100ab575b600080fd5b6100596100c7565b6040516100669190610558565b60405180910390f35b6100776100cd565b604051610084919061060c565b60405180910390f35b61009561026f565b6040516100a2919061066f565b60405180910390f35b6100c560048036038101906100c091906107d3565b6102d9565b005b60005481565b6060600160003373ffffffffffffffffffffffffffffffffffffffff1673ffffffffffffffffffffffffffffffffffffffff16815260200190815260200160002060010160009054906101000a900473ffffffffffffffffffffffffffffffffffffffff1673ffffffffffffffffffffffffffffffffffffffff163373ffffffffffffffffffffffffffffffffffffffff161461019f576040517f08c379a000000000000000000000000000000000000000000000000000000000815260040161019690610868565b60405180910390fd5b600160003373ffffffffffffffffffffffffffffffffffffffff1673ffffffffffffffffffffffffffffffffffffffff16815260200190815260200160002060000180546101ec906108b7565b80601f0160208091040260200160405190810160405280929190818152602001828054610218906108b7565b80156102655780601f1061023a57610100808354040283529160200191610265565b820191906000526020600020905b81548152906001019060200180831161024857829003601f168201915b5050505050905090565b6000600160003373ffffffffffffffffffffffffffffffffffffffff1673ffffffffffffffffffffffffffffffffffffffff16815260200190815260200160002060010160009054906101000a900473ffffffffffffffffffffffffffffffffffffffff16905090565b600073ffffffffffffffffffffffffffffffffffffffff16600160003373ffffffffffffffffffffffffffffffffffffffff1673ffffffffffffffffffffffffffffffffffffffff16815260200190815260200160002060010160009054906101000a900473ffffffffffffffffffffffffffffffffffffffff1673ffffffffffffffffffffffffffffffffffffffff16146103aa576040517f08c379a00000000000000000000000000000000000000000000000000000000081526004016103a190610935565b60405180910390fd5b80600160003373ffffffffffffffffffffffffffffffffffffffff1673ffffffffffffffffffffffffffffffffffffffff168152602001908152602001600020600001908051906020019061040092919061049c565b5033600160003373ffffffffffffffffffffffffffffffffffffffff1673ffffffffffffffffffffffffffffffffffffffff16815260200190815260200160002060010160006101000a81548173ffffffffffffffffffffffffffffffffffffffff021916908373ffffffffffffffffffffffffffffffffffffffff16021790555060008081548092919061049490610984565b919050555050565b8280546104a8906108b7565b90600052602060002090601f0160209004810192826104ca5760008555610511565b82601f106104e357805160ff1916838001178555610511565b82800160010185558215610511579182015b828111156105105782518255916020019190600101906104f5565b5b50905061051e9190610522565b5090565b5b8082111561053b576000816000905550600101610523565b5090565b6000819050919050565b6105528161053f565b82525050565b600060208201905061056d6000830184610549565b92915050565b600081519050919050565b600082825260208201905092915050565b60005b838110156105ad578082015181840152602081019050610592565b838111156105bc576000848401525b50505050565b6000601f19601f8301169050919050565b60006105de82610573565b6105e8818561057e565b93506105f881856020860161058f565b610601816105c2565b840191505092915050565b6000602082019050818103600083015261062681846105d3565b905092915050565b600073ffffffffffffffffffffffffffffffffffffffff82169050919050565b60006106598261062e565b9050919050565b6106698161064e565b82525050565b60006020820190506106846000830184610660565b92915050565b6000604051905090565b600080fd5b600080fd5b600080fd5b600080fd5b7f4e487b7100000000000000000000000000000000000000000000000000000000600052604160045260246000fd5b6106e0826105c2565b810181811067ffffffffffffffff821117156106ff576106fe6106a8565b5b80604052505050565b600061071261068a565b905061071e82826106d7565b919050565b600067ffffffffffffffff82111561073e5761073d6106a8565b5b610747826105c2565b9050602081019050919050565b82818337600083830152505050565b600061077661077184610723565b610708565b905082815260208101848484011115610792576107916106a3565b5b61079d848285610754565b509392505050565b600082601f8301126107ba576107b961069e565b5b81356107ca848260208601610763565b91505092915050565b6000602082840312156107e9576107e8610694565b5b600082013567ffffffffffffffff81111561080757610806610699565b5b610813848285016107a5565b91505092915050565b7f4e6f7420616c6c6f776564000000000000000000000000000000000000000000600082015250565b6000610852600b8361057e565b915061085d8261081c565b602082019050919050565b6000602082019050818103600083015261088181610845565b9050919050565b7f4e487b7100000000000000000000000000000000000000000000000000000000600052602260045260246000fd5b600060028204905060018216806108cf57607f821691505b602082108114156108e3576108e2610888565b5b50919050565b7f616c726561647920726567697374657265640000000000000000000000000000600082015250565b600061091f60128361057e565b915061092a826108e9565b602082019050919050565b6000602082019050818103600083015261094e81610912565b9050919050565b7f4e487b7100000000000000000000000000000000000000000000000000000000600052601160045260246000fd5b600061098f8261053f565b91507fffffffffffffffffffffffffffffffffffffffffffffffffffffffffffffffff8214156109c2576109c1610955565b5b60018201905091905056fea2646970667358221220ed8e592e9ca7f4d3a2af1fc25d71d049adca7f9f1014427b649b2d2727f55e8a64736f6c634300080b0033",
  "immutableReferences": {},
  "source": "// SPDX-License-Identifier: MIT\r\npragma solidity 0.8.11;\r\n\r\ncontract AccountVerification {\r\n    uint256 public nbOfUsers;\r\n\r\n    struct User {\r\n        string signatureHash;\r\n        address userAddress;\r\n    }\r\n\r\n    mapping(address => User) private user;\r\n\r\n    constructor() {\r\n        nbOfUsers = 0;\r\n    }\r\n\r\n    function register(string memory _signature) public {\r\n        require(\r\n            user[msg.sender].userAddress ==\r\n                address(0x0000000000000000000000000000000000000000),\r\n            \"already registered\"\r\n        );\r\n\r\n        user[msg.sender].signatureHash = _signature;\r\n        user[msg.sender].userAddress = msg.sender;\r\n        nbOfUsers++;\r\n    }\r\n\r\n    function getSignatureHash() public view returns (string memory) {\r\n        require(msg.sender == user[msg.sender].userAddress, \"Not allowed\");\r\n\r\n        return user[msg.sender].signatureHash;\r\n    }\r\n\r\n    function getUserAddress() public view returns (address) {\r\n        return user[msg.sender].userAddress;\r\n    }\r\n}\r\n",
  "sourcePath": "C:\\Users\\DELL\\Desktop\\CS-dapp\\contracts\\AccountVerification.sol",
  "compiler": {
    "name": "solc",
    "version": "0.8.11+commit.d7f03943.Emscripten.clang"
  },
  "schemaVersion": "3.4.5",
  "updatedAt": "2022-03-05T15:14:35.898Z",
  "networkType": "ethereum",
  "devdoc": {
    "kind": "dev",
    "methods": {},
    "version": 1
  },
  "userdoc": {
    "kind": "user",
    "methods": {},
    "version": 1
  }
}