{
  "contractName": "bcs",
  "abi": [
    {
      "inputs": [],
      "name": "beneficiary",
      "outputs": [
        {
          "internalType": "address",
          "name": "",
          "type": "address"
        }
      ],
      "stateMutability": "view",
      "type": "function",
      "constant": true
    },
    {
      "inputs": [
        {
          "internalType": "address",
          "name": "",
          "type": "address"
        }
      ],
      "name": "donors",
      "outputs": [
        {
          "internalType": "uint256",
          "name": "",
          "type": "uint256"
        }
      ],
      "stateMutability": "view",
      "type": "function",
      "constant": true
    },
    {
      "inputs": [],
      "name": "minimumContribution",
      "outputs": [
        {
          "internalType": "uint256",
          "name": "",
          "type": "uint256"
        }
      ],
      "stateMutability": "view",
      "type": "function",
      "constant": true
    },
    {
      "inputs": [],
      "name": "noOfdonors",
      "outputs": [
        {
          "internalType": "uint256",
          "name": "",
          "type": "uint256"
        }
      ],
      "stateMutability": "view",
      "type": "function",
      "constant": true
    },
    {
      "inputs": [],
      "name": "numRequests",
      "outputs": [
        {
          "internalType": "uint256",
          "name": "",
          "type": "uint256"
        }
      ],
      "stateMutability": "view",
      "type": "function",
      "constant": true
    },
    {
      "inputs": [],
      "name": "numofregisteredTender",
      "outputs": [
        {
          "internalType": "uint256",
          "name": "",
          "type": "uint256"
        }
      ],
      "stateMutability": "view",
      "type": "function",
      "constant": true
    },
    {
      "inputs": [],
      "name": "raisedAmount",
      "outputs": [
        {
          "internalType": "uint256",
          "name": "",
          "type": "uint256"
        }
      ],
      "stateMutability": "view",
      "type": "function",
      "constant": true
    },
    {
      "inputs": [
        {
          "internalType": "uint256",
          "name": "",
          "type": "uint256"
        }
      ],
      "name": "requests",
      "outputs": [
        {
          "internalType": "string",
          "name": "description",
          "type": "string"
        },
        {
          "internalType": "uint256",
          "name": "value",
          "type": "uint256"
        },
        {
          "internalType": "bool",
          "name": "completed",
          "type": "bool"
        },
        {
          "internalType": "uint256",
          "name": "noOfVoters",
          "type": "uint256"
        },
        {
          "internalType": "address payable",
          "name": "recipient",
          "type": "address"
        }
      ],
      "stateMutability": "view",
      "type": "function",
      "constant": true
    },
    {
      "inputs": [],
      "name": "target",
      "outputs": [
        {
          "internalType": "uint256",
          "name": "",
          "type": "uint256"
        }
      ],
      "stateMutability": "view",
      "type": "function",
      "constant": true
    },
    {
      "inputs": [],
      "name": "url",
      "outputs": [
        {
          "internalType": "string",
          "name": "",
          "type": "string"
        }
      ],
      "stateMutability": "view",
      "type": "function",
      "constant": true
    },
    {
      "inputs": [
        {
          "internalType": "uint256",
          "name": "_target",
          "type": "uint256"
        },
        {
          "internalType": "uint256",
          "name": "_minimum",
          "type": "uint256"
        },
        {
          "internalType": "string",
          "name": "_url",
          "type": "string"
        }
      ],
      "name": "registerTender",
      "outputs": [],
      "stateMutability": "payable",
      "type": "function",
      "payable": true
    },
    {
      "inputs": [],
      "name": "getreqNo",
      "outputs": [
        {
          "internalType": "uint256",
          "name": "",
          "type": "uint256"
        }
      ],
      "stateMutability": "view",
      "type": "function",
      "constant": true
    },
    {
      "inputs": [],
      "name": "donate",
      "outputs": [],
      "stateMutability": "payable",
      "type": "function",
      "payable": true
    },
    {
      "inputs": [
        {
          "internalType": "string",
          "name": "_description",
          "type": "string"
        },
        {
          "internalType": "address payable",
          "name": "_recipient",
          "type": "address"
        },
        {
          "internalType": "uint256",
          "name": "_value",
          "type": "uint256"
        }
      ],
      "name": "createRequests",
      "outputs": [],
      "stateMutability": "payable",
      "type": "function",
      "payable": true
    },
    {
      "inputs": [
        {
          "internalType": "uint256",
          "name": "_requestNo",
          "type": "uint256"
        }
      ],
      "name": "voteRequest",
      "outputs": [],
      "stateMutability": "nonpayable",
      "type": "function"
    },
    {
      "inputs": [
        {
          "internalType": "uint256",
          "name": "_requestNo",
          "type": "uint256"
        }
      ],
      "name": "settleRequest",
      "outputs": [],
      "stateMutability": "nonpayable",
      "type": "function"
    },
    {
      "inputs": [],
      "name": "getTenderinfo",
      "outputs": [
        {
          "internalType": "uint256",
          "name": "",
          "type": "uint256"
        },
        {
          "internalType": "uint256",
          "name": "",
          "type": "uint256"
        },
        {
          "internalType": "string",
          "name": "",
          "type": "string"
        },
        {
          "internalType": "uint256",
          "name": "",
          "type": "uint256"
        },
        {
          "internalType": "address",
          "name": "",
          "type": "address"
        },
        {
          "internalType": "uint256",
          "name": "",
          "type": "uint256"
        },
        {
          "internalType": "uint256",
          "name": "",
          "type": "uint256"
        },
        {
          "internalType": "uint256",
          "name": "",
          "type": "uint256"
        }
      ],
      "stateMutability": "view",
      "type": "function",
      "constant": true
    },
    {
      "inputs": [
        {
          "internalType": "uint256",
          "name": "_i",
          "type": "uint256"
        }
      ],
      "name": "getRequeststatus",
      "outputs": [
        {
          "internalType": "bool",
          "name": "",
          "type": "bool"
        },
        {
          "internalType": "uint256",
          "name": "",
          "type": "uint256"
        },
        {
          "internalType": "address",
          "name": "",
          "type": "address"
        },
        {
          "internalType": "uint256",
          "name": "",
          "type": "uint256"
        },
        {
          "internalType": "uint256",
          "name": "",
          "type": "uint256"
        },
        {
          "internalType": "string",
          "name": "",
          "type": "string"
        },
        {
          "internalType": "address",
          "name": "",
          "type": "address"
        }
      ],
      "stateMutability": "view",
      "type": "function",
      "constant": true
    }
  ],
  "bytecode": "0x608060405234801561001057600080fd5b50611d59806100206000396000f3fe6080604052600436106101095760003560e01c8063937e09b111610095578063c59ee1dc11610064578063c59ee1dc14610352578063ca0cdea81461037d578063d247f92b146103ba578063d4b83992146103e3578063ed88c68e1461040e57610109565b8063937e09b1146102a65780639fb42b1f146102d1578063aaf09c4e146102fc578063bc9191091461032757610109565b80635600f04f116100dc5780635600f04f146101a957806381d12c58146101d45780638b84590d146102155780638faf755114610258578063928a13971461027457610109565b806335b7f7831461010e57806338af3eed146101395780633eb7647b146101645780634cb6f4a514610180575b600080fd5b34801561011a57600080fd5b50610123610418565b6040516101309190611122565b60405180910390f35b34801561014557600080fd5b5061014e61041e565b60405161015b919061117e565b60405180910390f35b61017e6004803603810190610179919061135d565b610444565b005b34801561018c57600080fd5b506101a760048036038101906101a291906113cc565b610597565b005b3480156101b557600080fd5b506101be6107bd565b6040516101cb9190611481565b60405180910390f35b3480156101e057600080fd5b506101fb60048036038101906101f691906113cc565b61084b565b60405161020c9594939291906114cd565b60405180910390f35b34801561022157600080fd5b5061023c600480360381019061023791906113cc565b610936565b60405161024f9796959493929190611527565b60405180910390f35b610272600480360381019061026d919061159d565b610aac565b005b34801561028057600080fd5b50610289610b74565b60405161029d98979695949392919061160c565b60405180910390f35b3480156102b257600080fd5b506102bb610c5c565b6040516102c89190611122565b60405180910390f35b3480156102dd57600080fd5b506102e6610c62565b6040516102f39190611122565b60405180910390f35b34801561030857600080fd5b50610311610c68565b60405161031e9190611122565b60405180910390f35b34801561033357600080fd5b5061033c610c6e565b6040516103499190611122565b60405180910390f35b34801561035e57600080fd5b50610367610c78565b6040516103749190611122565b60405180910390f35b34801561038957600080fd5b506103a4600480360381019061039f91906116bd565b610c7e565b6040516103b19190611122565b60405180910390f35b3480156103c657600080fd5b506103e160048036038101906103dc91906113cc565b610c96565b005b3480156103ef57600080fd5b506103f8610e8a565b6040516104059190611122565b60405180910390f35b610416610e90565b005b60065481565b600160009054906101000a900473ffffffffffffffffffffffffffffffffffffffff1681565b600160009054906101000a900473ffffffffffffffffffffffffffffffffffffffff1673ffffffffffffffffffffffffffffffffffffffff163373ffffffffffffffffffffffffffffffffffffffff16146104d4576040517f08c379a00000000000000000000000000000000000000000000000000000000081526004016104cb9061175c565b60405180910390fd5b6000600960006007548152602001908152602001600020905060076000815480929190610500906117ab565b91905055508381600001908051906020019061051d929190611066565b50828160040160006101000a81548173ffffffffffffffffffffffffffffffffffffffff021916908373ffffffffffffffffffffffffffffffffffffffff16021790555081816001018190555060008160020160006101000a81548160ff0219169083151502179055506000816003018190555050505050565b60008060003373ffffffffffffffffffffffffffffffffffffffff1673ffffffffffffffffffffffffffffffffffffffff1681526020019081526020016000205411610618576040517f08c379a000000000000000000000000000000000000000000000000000000000815260040161060f90611866565b60405180910390fd5b60008060003373ffffffffffffffffffffffffffffffffffffffff1673ffffffffffffffffffffffffffffffffffffffff1681526020019081526020016000205411610699576040517f08c379a0000000000000000000000000000000000000000000000000000000008152600401610690906118d2565b60405180910390fd5b6000600960008381526020019081526020016000209050600015158160050160003373ffffffffffffffffffffffffffffffffffffffff1673ffffffffffffffffffffffffffffffffffffffff16815260200190815260200160002060009054906101000a900460ff16151514610745576040517f08c379a000000000000000000000000000000000000000000000000000000000815260040161073c9061193e565b60405180910390fd5b60018160050160003373ffffffffffffffffffffffffffffffffffffffff1673ffffffffffffffffffffffffffffffffffffffff16815260200190815260200160002060006101000a81548160ff0219169083151502179055508060030160008154809291906107b4906117ab565b91905055505050565b600280546107ca9061198d565b80601f01602080910402602001604051908101604052809291908181526020018280546107f69061198d565b80156108435780601f1061081857610100808354040283529160200191610843565b820191906000526020600020905b81548152906001019060200180831161082657829003601f168201915b505050505081565b600960205280600052604060002060009150905080600001805461086e9061198d565b80601f016020809104026020016040519081016040528092919081815260200182805461089a9061198d565b80156108e75780601f106108bc576101008083540402835291602001916108e7565b820191906000526020600020905b8154815290600101906020018083116108ca57829003601f168201915b5050505050908060010154908060020160009054906101000a900460ff16908060030154908060040160009054906101000a900473ffffffffffffffffffffffffffffffffffffffff16905085565b6000806000806000606060006009600089815260200190815260200160002060020160009054906101000a900460ff16600960008a815260200190815260200160002060010154600960008b815260200190815260200160002060040160009054906101000a900473ffffffffffffffffffffffffffffffffffffffff16600960008c815260200190815260200160002060030154600654600960008e8152602001908152602001600020600001600160009054906101000a900473ffffffffffffffffffffffffffffffffffffffff16818054610a139061198d565b80601f0160208091040260200160405190810160405280929190818152602001828054610a3f9061198d565b8015610a8c5780601f10610a6157610100808354040283529160200191610a8c565b820191906000526020600020905b815481529060010190602001808311610a6f57829003601f168201915b505050505091509650965096509650965096509650919395979092949650565b600060085414610af1576040517f08c379a0000000000000000000000000000000000000000000000000000000008152600401610ae890611a0b565b60405180910390fd5b82600481905550816003819055508060029080519060200190610b15929190611066565b5033600160006101000a81548173ffffffffffffffffffffffffffffffffffffffff021916908373ffffffffffffffffffffffffffffffffffffffff16021790555060086000815480929190610b6a906117ab565b9190505550505050565b60008060606000806000806000600354600454600247600160009054906101000a900473ffffffffffffffffffffffffffffffffffffffff16600654600754600554858054610bc29061198d565b80601f0160208091040260200160405190810160405280929190818152602001828054610bee9061198d565b8015610c3b5780601f10610c1057610100808354040283529160200191610c3b565b820191906000526020600020905b815481529060010190602001808311610c1e57829003601f168201915b50505050509550975097509750975097509750975097509091929394959697565b60035481565b60075481565b60085481565b6000600754905090565b60055481565b60006020528060005260406000206000915090505481565b600160009054906101000a900473ffffffffffffffffffffffffffffffffffffffff1673ffffffffffffffffffffffffffffffffffffffff163373ffffffffffffffffffffffffffffffffffffffff1614610d26576040517f08c379a0000000000000000000000000000000000000000000000000000000008152600401610d1d9061175c565b60405180910390fd5b6004546005541115610d3757600080fd5b6000600960008381526020019081526020016000209050600015158160020160009054906101000a900460ff16151514610da6576040517f08c379a0000000000000000000000000000000000000000000000000000000008152600401610d9d90611a77565b60405180910390fd5b6002600654610db59190611ac6565b816003015411610dfa576040517f08c379a0000000000000000000000000000000000000000000000000000000008152600401610df190611b43565b60405180910390fd5b8060040160009054906101000a900473ffffffffffffffffffffffffffffffffffffffff1673ffffffffffffffffffffffffffffffffffffffff166108fc82600101549081150290604051600060405180830381858888f19350505050158015610e68573d6000803e3d6000fd5b5060018160020160006101000a81548160ff0219169083151502179055505050565b60045481565b600454341115610ed5576040517f08c379a0000000000000000000000000000000000000000000000000000000008152600401610ecc90611baf565b60405180910390fd5b600060075414610f1a576040517f08c379a0000000000000000000000000000000000000000000000000000000008152600401610f1190611c41565b60405180910390fd5b600354341015610f5f576040517f08c379a0000000000000000000000000000000000000000000000000000000008152600401610f5690611cad565b60405180910390fd5b60008060003373ffffffffffffffffffffffffffffffffffffffff1673ffffffffffffffffffffffffffffffffffffffff168152602001908152602001600020541415610fbf5760066000815480929190610fb9906117ab565b91905055505b6000803373ffffffffffffffffffffffffffffffffffffffff1673ffffffffffffffffffffffffffffffffffffffff16815260200190815260200160002054346110099190611ccd565b6000803373ffffffffffffffffffffffffffffffffffffffff1673ffffffffffffffffffffffffffffffffffffffff16815260200190815260200160002081905550346005600082825461105d9190611ccd565b92505081905550565b8280546110729061198d565b90600052602060002090601f01602090048101928261109457600085556110db565b82601f106110ad57805160ff19168380011785556110db565b828001600101855582156110db579182015b828111156110da5782518255916020019190600101906110bf565b5b5090506110e891906110ec565b5090565b5b808211156111055760008160009055506001016110ed565b5090565b6000819050919050565b61111c81611109565b82525050565b60006020820190506111376000830184611113565b92915050565b600073ffffffffffffffffffffffffffffffffffffffff82169050919050565b60006111688261113d565b9050919050565b6111788161115d565b82525050565b6000602082019050611193600083018461116f565b92915050565b6000604051905090565b600080fd5b600080fd5b600080fd5b600080fd5b6000601f19601f8301169050919050565b7f4e487b7100000000000000000000000000000000000000000000000000000000600052604160045260246000fd5b611200826111b7565b810181811067ffffffffffffffff8211171561121f5761121e6111c8565b5b80604052505050565b6000611232611199565b905061123e82826111f7565b919050565b600067ffffffffffffffff82111561125e5761125d6111c8565b5b611267826111b7565b9050602081019050919050565b82818337600083830152505050565b600061129661129184611243565b611228565b9050828152602081018484840111156112b2576112b16111b2565b5b6112bd848285611274565b509392505050565b600082601f8301126112da576112d96111ad565b5b81356112ea848260208601611283565b91505092915050565b60006112fe8261113d565b9050919050565b61130e816112f3565b811461131957600080fd5b50565b60008135905061132b81611305565b92915050565b61133a81611109565b811461134557600080fd5b50565b60008135905061135781611331565b92915050565b600080600060608486031215611376576113756111a3565b5b600084013567ffffffffffffffff811115611394576113936111a8565b5b6113a0868287016112c5565b93505060206113b18682870161131c565b92505060406113c286828701611348565b9150509250925092565b6000602082840312156113e2576113e16111a3565b5b60006113f084828501611348565b91505092915050565b600081519050919050565b600082825260208201905092915050565b60005b83811015611433578082015181840152602081019050611418565b83811115611442576000848401525b50505050565b6000611453826113f9565b61145d8185611404565b935061146d818560208601611415565b611476816111b7565b840191505092915050565b6000602082019050818103600083015261149b8184611448565b905092915050565b60008115159050919050565b6114b8816114a3565b82525050565b6114c7816112f3565b82525050565b600060a08201905081810360008301526114e78188611448565b90506114f66020830187611113565b61150360408301866114af565b6115106060830185611113565b61151d60808301846114be565b9695505050505050565b600060e08201905061153c600083018a6114af565b6115496020830189611113565b611556604083018861116f565b6115636060830187611113565b6115706080830186611113565b81810360a08301526115828185611448565b905061159160c083018461116f565b98975050505050505050565b6000806000606084860312156115b6576115b56111a3565b5b60006115c486828701611348565b93505060206115d586828701611348565b925050604084013567ffffffffffffffff8111156115f6576115f56111a8565b5b611602868287016112c5565b9150509250925092565b600061010082019050611622600083018b611113565b61162f602083018a611113565b81810360408301526116418189611448565b90506116506060830188611113565b61165d608083018761116f565b61166a60a0830186611113565b61167760c0830185611113565b61168460e0830184611113565b9998505050505050505050565b61169a8161115d565b81146116a557600080fd5b50565b6000813590506116b781611691565b92915050565b6000602082840312156116d3576116d26111a3565b5b60006116e1848285016116a8565b91505092915050565b7f4f6e6c792062656e65666963696172792063616e2063616c6c6c20746869732060008201527f66756e6374696f6e000000000000000000000000000000000000000000000000602082015250565b6000611746602883611404565b9150611751826116ea565b604082019050919050565b6000602082019050818103600083015261177581611739565b9050919050565b7f4e487b7100000000000000000000000000000000000000000000000000000000600052601160045260246000fd5b60006117b682611109565b91507fffffffffffffffffffffffffffffffffffffffffffffffffffffffffffffffff8214156117e9576117e861177c565b5b600182019050919050565b7f4f6e6c7920646f6e6f72732063616e2063616c6c6c20746869732066756e637460008201527f696f6e0000000000000000000000000000000000000000000000000000000000602082015250565b6000611850602383611404565b915061185b826117f4565b604082019050919050565b6000602082019050818103600083015261187f81611843565b9050919050565b7f594f75206d75737420626520636f6e7472696275746f72000000000000000000600082015250565b60006118bc601783611404565b91506118c782611886565b602082019050919050565b600060208201905081810360008301526118eb816118af565b9050919050565b7f596f75206861766520616c726561647920766f74656400000000000000000000600082015250565b6000611928601683611404565b9150611933826118f2565b602082019050919050565b600060208201905081810360008301526119578161191b565b9050919050565b7f4e487b7100000000000000000000000000000000000000000000000000000000600052602260045260246000fd5b600060028204905060018216806119a557607f821691505b602082108114156119b9576119b861195e565b5b50919050565b7f6f6e6c79206f6e652074656e6465720000000000000000000000000000000000600082015250565b60006119f5600f83611404565b9150611a00826119bf565b602082019050919050565b60006020820190508181036000830152611a24816119e8565b9050919050565b7f546865207265717565737420686173206265656e20636f6d706c657465640000600082015250565b6000611a61601e83611404565b9150611a6c82611a2b565b602082019050919050565b60006020820190508181036000830152611a9081611a54565b9050919050565b7f4e487b7100000000000000000000000000000000000000000000000000000000600052601260045260246000fd5b6000611ad182611109565b9150611adc83611109565b925082611aec57611aeb611a97565b5b828204905092915050565b7f4d616a6f7269747920646f6573206e6f7420737570706f727400000000000000600082015250565b6000611b2d601983611404565b9150611b3882611af7565b602082019050919050565b60006020820190508181036000830152611b5c81611b20565b9050919050565b7f616d6f756e742067726561746572207468616e20746172676574000000000000600082015250565b6000611b99601a83611404565b9150611ba482611b63565b602082019050919050565b60006020820190508181036000830152611bc881611b8c565b9050919050565b7f72616973656420616d6f756e742068617320616c7265616479206d657920746160008201527f7267657400000000000000000000000000000000000000000000000000000000602082015250565b6000611c2b602483611404565b9150611c3682611bcf565b604082019050919050565b60006020820190508181036000830152611c5a81611c1e565b9050919050565b7f4d696e696d756d20646f6e6174696f6e206973206e6f74206d65740000000000600082015250565b6000611c97601b83611404565b9150611ca282611c61565b602082019050919050565b60006020820190508181036000830152611cc681611c8a565b9050919050565b6000611cd882611109565b9150611ce383611109565b9250827fffffffffffffffffffffffffffffffffffffffffffffffffffffffffffffffff03821115611d1857611d1761177c565b5b82820190509291505056fea2646970667358221220c581246a6735e0cfd13d611f1ac2f6af687743180fc1ca66952026c4b6d94cdf64736f6c634300080b0033",
  "immutableReferences": {},
  "source": "// SPDX-License-Identifier: MIT\r\npragma solidity 0.8.11;\r\n\r\ncontract bcs {\r\n    //for transaction\r\n    mapping(address => uint256) public donors;\r\n    address public beneficiary;\r\n    string public url;\r\n    uint256 public minimumContribution;\r\n    uint256 public target;\r\n    uint256 public raisedAmount;\r\n    uint256 public noOfdonors;\r\n    uint256 public numRequests;\r\n    uint256 public numofregisteredTender;\r\n\r\n    struct Request {\r\n        string description;\r\n        uint256 value;\r\n        bool completed;\r\n        uint256 noOfVoters;\r\n        address payable recipient;\r\n        mapping(address => bool) voters;\r\n    }\r\n\r\n    mapping(uint256 => Request) public requests;\r\n\r\n    function registerTender(\r\n        uint256 _target,\r\n        uint256 _minimum,\r\n        string memory _url\r\n    ) external payable {\r\n        require(numofregisteredTender == 0, \"only one tender\");\r\n        target = _target;\r\n        minimumContribution = _minimum;\r\n        url = _url;\r\n        beneficiary = msg.sender;\r\n        numofregisteredTender++;\r\n    }\r\n\r\n    function getreqNo() public view returns (uint) {\r\n        return numRequests;\r\n    }\r\n    function donate() public payable {\r\n        require(msg.value <= target, \"amount greater than target\");\r\n        require(numRequests == 0, \"raised amount has already mey target\");\r\n\r\n        require(\r\n            msg.value >= minimumContribution,\r\n            \"Minimum donation is not met\"\r\n        );\r\n        if (donors[msg.sender] == 0) {\r\n            noOfdonors++;\r\n        }\r\n        donors[msg.sender] = msg.value + donors[msg.sender];\r\n        raisedAmount += msg.value;\r\n    }\r\n\r\n    modifier onlybeneficiary() {\r\n        require(\r\n            msg.sender == beneficiary,\r\n            \"Only beneficiary can calll this function\"\r\n        );\r\n        _;\r\n    }\r\n\r\n    modifier onlydonor() {\r\n        require(donors[msg.sender] > 0, \"Only donors can calll this function\");\r\n        _;\r\n    }\r\n\r\n    function createRequests(\r\n        string memory _description,\r\n        address payable _recipient,\r\n        uint256 _value\r\n    ) public payable onlybeneficiary {\r\n        Request storage newRequest = requests[numRequests];\r\n        numRequests++;\r\n        newRequest.description = _description;\r\n        newRequest.recipient = _recipient;\r\n        newRequest.value = _value;\r\n        newRequest.completed = false;\r\n        newRequest.noOfVoters = 0;\r\n    }\r\n\r\n    function voteRequest(uint256 _requestNo) public onlydonor {\r\n        require(donors[msg.sender] > 0, \"YOu must be contributor\");\r\n        Request storage thisRequest = requests[_requestNo];\r\n        require(\r\n            thisRequest.voters[msg.sender] == false,\r\n            \"You have already voted\"\r\n        );\r\n        thisRequest.voters[msg.sender] = true;\r\n        thisRequest.noOfVoters++;\r\n    }\r\n\r\n    function settleRequest(uint256 _requestNo) public onlybeneficiary {\r\n        require(raisedAmount <= target);\r\n        Request storage thisRequest = requests[_requestNo];\r\n        require(\r\n            thisRequest.completed == false,\r\n            \"The request has been completed\"\r\n        );\r\n        require(\r\n            thisRequest.noOfVoters > noOfdonors / 2,\r\n            \"Majority does not support\"\r\n        );\r\n        thisRequest.recipient.transfer(thisRequest.value);\r\n        thisRequest.completed = true;\r\n    }\r\n\r\n    function getTenderinfo()\r\n        public\r\n        view\r\n        returns (\r\n            uint256,\r\n            uint256,\r\n            string memory,\r\n            uint256,\r\n            address,\r\n            uint256,\r\n            uint256,\r\n            uint256\r\n        )\r\n    {\r\n        return (\r\n            minimumContribution,\r\n            target,\r\n            url,\r\n            address(this).balance,\r\n            beneficiary,\r\n            noOfdonors,\r\n            numRequests,\r\n            raisedAmount\r\n        );\r\n    }\r\n\r\n    function getRequeststatus(uint256 _i)\r\n        public\r\n        view\r\n        returns (\r\n            bool,\r\n            uint256,\r\n            address,\r\n            uint256,\r\n            uint256,\r\n            string memory,\r\n            address\r\n        )\r\n    {\r\n        return (\r\n             requests[_i].completed,\r\n            requests[_i].value,\r\n            requests[_i].recipient,\r\n            requests[_i].noOfVoters,\r\n            noOfdonors,\r\n            requests[_i].description,\r\n            beneficiary\r\n        \r\n        );\r\n    }\r\n}\r\n",
  "sourcePath": "C:\\Users\\DELL\\Desktop\\CS-dapp\\contracts\\bcs.sol",
  "compiler": {
    "name": "solc",
    "version": "0.8.11+commit.d7f03943.Emscripten.clang"
  },
  "schemaVersion": "3.4.5",
  "updatedAt": "2022-03-05T15:14:38.766Z",
  "networkType": "ethereum",
  "devdoc": {
    "kind": "dev",
    "methods": {},
    "version": 1
  },
  "userdoc": {
    "kind": "user",
    "methods": {},
    "version": 1
  }
}