{
  "contractName": "registerMultipleTendors",
  "abi": [
    {
      "inputs": [
        {
          "internalType": "address",
          "name": "_contractADDRESS",
          "type": "address"
        }
      ],
      "name": "setContractaddress",
      "outputs": [],
      "stateMutability": "nonpayable",
      "type": "function"
    },
    {
      "inputs": [
        {
          "internalType": "uint256",
          "name": "_target",
          "type": "uint256"
        },
        {
          "internalType": "uint256",
          "name": "_minimum",
          "type": "uint256"
        },
        {
          "internalType": "string",
          "name": "_fileurl",
          "type": "string"
        }
      ],
      "name": "createTender",
      "outputs": [],
      "stateMutability": "nonpayable",
      "type": "function"
    },
    {
      "inputs": [],
      "name": "getDeployedTender",
      "outputs": [
        {
          "internalType": "address",
          "name": "",
          "type": "address"
        }
      ],
      "stateMutability": "view",
      "type": "function"
    }
  ],
  "bytecode": "0x608060405234801561001057600080fd5b50610562806100206000396000f3fe608060405234801561001057600080fd5b50600436106100415760003560e01c806355d9289d1461004657806385215d0f14610062578063fa100fc014610080575b600080fd5b610060600480360381019061005b9190610333565b61009c565b005b61006a610137565b60405161007791906103e3565b60405180910390f35b61009a6004803603810190610095919061042a565b610160565b005b60008060009054906101000a900473ffffffffffffffffffffffffffffffffffffffff1690508073ffffffffffffffffffffffffffffffffffffffff16638faf75518585856040518463ffffffff1660e01b81526004016100ff939291906104ee565b600060405180830381600087803b15801561011957600080fd5b505af115801561012d573d6000803e3d6000fd5b5050505050505050565b60008060009054906101000a900473ffffffffffffffffffffffffffffffffffffffff16905090565b806000806101000a81548173ffffffffffffffffffffffffffffffffffffffff021916908373ffffffffffffffffffffffffffffffffffffffff16021790555050565b6000604051905090565b600080fd5b600080fd5b6000819050919050565b6101ca816101b7565b81146101d557600080fd5b50565b6000813590506101e7816101c1565b92915050565b600080fd5b600080fd5b6000601f19601f8301169050919050565b7f4e487b7100000000000000000000000000000000000000000000000000000000600052604160045260246000fd5b610240826101f7565b810181811067ffffffffffffffff8211171561025f5761025e610208565b5b80604052505050565b60006102726101a3565b905061027e8282610237565b919050565b600067ffffffffffffffff82111561029e5761029d610208565b5b6102a7826101f7565b9050602081019050919050565b82818337600083830152505050565b60006102d66102d184610283565b610268565b9050828152602081018484840111156102f2576102f16101f2565b5b6102fd8482856102b4565b509392505050565b600082601f83011261031a576103196101ed565b5b813561032a8482602086016102c3565b91505092915050565b60008060006060848603121561034c5761034b6101ad565b5b600061035a868287016101d8565b935050602061036b868287016101d8565b925050604084013567ffffffffffffffff81111561038c5761038b6101b2565b5b61039886828701610305565b9150509250925092565b600073ffffffffffffffffffffffffffffffffffffffff82169050919050565b60006103cd826103a2565b9050919050565b6103dd816103c2565b82525050565b60006020820190506103f860008301846103d4565b92915050565b610407816103c2565b811461041257600080fd5b50565b600081359050610424816103fe565b92915050565b6000602082840312156104405761043f6101ad565b5b600061044e84828501610415565b91505092915050565b610460816101b7565b82525050565b600081519050919050565b600082825260208201905092915050565b60005b838110156104a0578082015181840152602081019050610485565b838111156104af576000848401525b50505050565b60006104c082610466565b6104ca8185610471565b93506104da818560208601610482565b6104e3816101f7565b840191505092915050565b60006060820190506105036000830186610457565b6105106020830185610457565b818103604083015261052281846104b5565b905094935050505056fea2646970667358221220ce4f2183dda32b7a8ebab9625243e4ba00bdcf2b5161f7e392134acf97b2298764736f6c634300080b0033",
  "immutableReferences": {},
  "source": "// SPDX-License-Identifier: MIT\r\npragma solidity 0.8.11;\r\nimport \"./bcs.sol\";\r\ncontract registerMultipleTendors {\r\n    \r\n  \r\n    address contractaddress;\r\n    function setContractaddress(address _contractADDRESS) public {\r\n        contractaddress=_contractADDRESS;\r\n    }\r\n\r\n    function createTender(uint _target,uint _minimum,string memory _fileurl) public {\r\n        bcs contractPointer = bcs(contractaddress);\r\n        contractPointer.registerTender(_target,_minimum,_fileurl);\r\n    }\r\n\r\n    function getDeployedTender() public view returns (address) {\r\n        return (contractaddress);\r\n    }\r\n}\r\n\r\n\r\n//just calling registerTender() of smart contract bcs to create multiple tendors\r\n/* to do so,\r\n   1)we created contractpointer which points to bcs through contract address after (bcs) deployment in blockchain\r\n   2)then accessed registerTender() and passed neccessaary arguments to register tendor\r\n\r\n   AS a whole, multiple contract address access means registering multiple tendors  */\r\n\r\n\r\n/* POINT TO BE NOTED\r\n   1) deploy contract bcs(responsible charity handling and transaction) firstly\r\n   2) deploy this contract after bcs's deployment\r\n\r\n*/\r\n    ",
  "sourcePath": "C:\\Users\\DELL\\Desktop\\CS-dapp\\contracts\\registerMultipleTendors.sol",
  "compiler": {
    "name": "solc",
    "version": "0.8.11+commit.d7f03943.Emscripten.clang"
  },
  "schemaVersion": "3.4.5",
  "updatedAt": "2022-03-05T15:14:19.948Z",
  "devdoc": {
    "kind": "dev",
    "methods": {},
    "version": 1
  },
  "userdoc": {
    "kind": "user",
    "methods": {},
    "version": 1
  }
}